{
  "_format": "hh-sol-artifact-1",
  "contractName": "FarmDAO",
  "sourceName": "contracts/Dao.sol",
  "abi": [
    {
      "inputs": [
        {
          "internalType": "string",
          "name": "_title",
          "type": "string"
        }
      ],
      "stateMutability": "nonpayable",
      "type": "constructor"
    },
    {
      "anonymous": false,
      "inputs": [
        {
          "indexed": false,
          "internalType": "address",
          "name": "farmerAddress1",
          "type": "address"
        },
        {
          "indexed": false,
          "internalType": "uint256",
          "name": "daoId",
          "type": "uint256"
        },
        {
          "indexed": false,
          "internalType": "string",
          "name": "daoName",
          "type": "string"
        }
      ],
      "name": "DaoCreated",
      "type": "event"
    },
    {
      "anonymous": false,
      "inputs": [
        {
          "indexed": false,
          "internalType": "uint256",
          "name": "daoId",
          "type": "uint256"
        }
      ],
      "name": "DaoVerified",
      "type": "event"
    },
    {
      "anonymous": false,
      "inputs": [
        {
          "indexed": false,
          "internalType": "uint256",
          "name": "daoId",
          "type": "uint256"
        },
        {
          "indexed": false,
          "internalType": "uint256",
          "name": "amountInvested",
          "type": "uint256"
        },
        {
          "indexed": false,
          "internalType": "uint256",
          "name": "totalAmountWithdrawn",
          "type": "uint256"
        }
      ],
      "name": "FundsWithdrawn",
      "type": "event"
    },
    {
      "anonymous": false,
      "inputs": [
        {
          "indexed": false,
          "internalType": "address",
          "name": "investor",
          "type": "address"
        },
        {
          "indexed": false,
          "internalType": "uint256",
          "name": "amount",
          "type": "uint256"
        }
      ],
      "name": "InvestmentAdded",
      "type": "event"
    },
    {
      "inputs": [
        {
          "internalType": "uint256",
          "name": "daoId",
          "type": "uint256"
        },
        {
          "internalType": "uint256",
          "name": "investorId",
          "type": "uint256"
        },
        {
          "internalType": "uint256",
          "name": "amount",
          "type": "uint256"
        }
      ],
      "name": "addInvestment",
      "outputs": [],
      "stateMutability": "payable",
      "type": "function"
    },
    {
      "inputs": [],
      "name": "daoCreated",
      "outputs": [
        {
          "internalType": "bool",
          "name": "",
          "type": "bool"
        }
      ],
      "stateMutability": "view",
      "type": "function"
    },
    {
      "inputs": [
        {
          "internalType": "uint256",
          "name": "",
          "type": "uint256"
        },
        {
          "internalType": "uint256",
          "name": "",
          "type": "uint256"
        }
      ],
      "name": "daoFarmersGoogleId",
      "outputs": [
        {
          "internalType": "address",
          "name": "",
          "type": "address"
        }
      ],
      "stateMutability": "view",
      "type": "function"
    },
    {
      "inputs": [
        {
          "internalType": "address",
          "name": "",
          "type": "address"
        },
        {
          "internalType": "uint256",
          "name": "",
          "type": "uint256"
        }
      ],
      "name": "daoFarmersWallet",
      "outputs": [
        {
          "internalType": "address",
          "name": "",
          "type": "address"
        }
      ],
      "stateMutability": "view",
      "type": "function"
    },
    {
      "inputs": [],
      "name": "daoID",
      "outputs": [
        {
          "internalType": "uint256",
          "name": "",
          "type": "uint256"
        }
      ],
      "stateMutability": "view",
      "type": "function"
    },
    {
      "inputs": [
        {
          "internalType": "uint256",
          "name": "",
          "type": "uint256"
        },
        {
          "internalType": "uint256",
          "name": "",
          "type": "uint256"
        }
      ],
      "name": "daoInvestorsGoogleId",
      "outputs": [
        {
          "internalType": "address",
          "name": "",
          "type": "address"
        }
      ],
      "stateMutability": "view",
      "type": "function"
    },
    {
      "inputs": [
        {
          "internalType": "uint256",
          "name": "",
          "type": "uint256"
        }
      ],
      "name": "daos",
      "outputs": [
        {
          "internalType": "address",
          "name": "address1",
          "type": "address"
        },
        {
          "internalType": "uint256",
          "name": "farmerId",
          "type": "uint256"
        },
        {
          "internalType": "string",
          "name": "name1",
          "type": "string"
        },
        {
          "internalType": "string",
          "name": "description",
          "type": "string"
        },
        {
          "internalType": "string",
          "name": "farmReports",
          "type": "string"
        },
        {
          "internalType": "string",
          "name": "financialReports",
          "type": "string"
        },
        {
          "internalType": "string",
          "name": "name",
          "type": "string"
        },
        {
          "internalType": "uint256",
          "name": "id",
          "type": "uint256"
        },
        {
          "internalType": "uint256",
          "name": "amountInvested",
          "type": "uint256"
        },
        {
          "internalType": "bool",
          "name": "verified",
          "type": "bool"
        }
      ],
      "stateMutability": "view",
      "type": "function"
    },
    {
      "inputs": [],
      "name": "farmer1",
      "outputs": [
        {
          "internalType": "address",
          "name": "",
          "type": "address"
        }
      ],
      "stateMutability": "view",
      "type": "function"
    },
    {
      "inputs": [],
      "name": "getAllDaos",
      "outputs": [
        {
          "components": [
            {
              "internalType": "address",
              "name": "address1",
              "type": "address"
            },
            {
              "internalType": "uint256",
              "name": "farmerId",
              "type": "uint256"
            },
            {
              "internalType": "string",
              "name": "name1",
              "type": "string"
            },
            {
              "internalType": "string",
              "name": "description",
              "type": "string"
            },
            {
              "internalType": "string",
              "name": "farmReports",
              "type": "string"
            },
            {
              "internalType": "string",
              "name": "financialReports",
              "type": "string"
            },
            {
              "internalType": "string",
              "name": "name",
              "type": "string"
            },
            {
              "internalType": "uint256",
              "name": "id",
              "type": "uint256"
            },
            {
              "internalType": "uint256",
              "name": "amountInvested",
              "type": "uint256"
            },
            {
              "internalType": "address[]",
              "name": "walletInvestors",
              "type": "address[]"
            },
            {
              "internalType": "uint256[]",
              "name": "googleIdInvestors",
              "type": "uint256[]"
            },
            {
              "internalType": "bool",
              "name": "verified",
              "type": "bool"
            }
          ],
          "internalType": "struct FarmDAO.Dao[]",
          "name": "",
          "type": "tuple[]"
        }
      ],
      "stateMutability": "view",
      "type": "function"
    },
    {
      "inputs": [],
      "name": "getAllInvestorInfo",
      "outputs": [
        {
          "components": [
            {
              "internalType": "address",
              "name": "investorAddress",
              "type": "address"
            },
            {
              "internalType": "uint256",
              "name": "googleInvestorId",
              "type": "uint256"
            },
            {
              "internalType": "string",
              "name": "name",
              "type": "string"
            }
          ],
          "internalType": "struct FarmDAO.Investor[]",
          "name": "",
          "type": "tuple[]"
        }
      ],
      "stateMutability": "view",
      "type": "function"
    },
    {
      "inputs": [
        {
          "internalType": "uint256",
          "name": "daoId",
          "type": "uint256"
        }
      ],
      "name": "getCurrentAmountAvailable",
      "outputs": [
        {
          "internalType": "uint256",
          "name": "",
          "type": "uint256"
        }
      ],
      "stateMutability": "view",
      "type": "function"
    },
    {
      "inputs": [
        {
          "internalType": "uint256",
          "name": "daoId",
          "type": "uint256"
        }
      ],
      "name": "getTotalAmountWithdrawn",
      "outputs": [
        {
          "internalType": "uint256",
          "name": "",
          "type": "uint256"
        }
      ],
      "stateMutability": "view",
      "type": "function"
    },
    {
      "inputs": [
        {
          "internalType": "uint256",
          "name": "daoId",
          "type": "uint256"
        }
      ],
      "name": "getTotalInvestment",
      "outputs": [
        {
          "internalType": "uint256",
          "name": "",
          "type": "uint256"
        }
      ],
      "stateMutability": "view",
      "type": "function"
    },
    {
      "inputs": [
        {
          "internalType": "uint256",
          "name": "investorId",
          "type": "uint256"
        }
      ],
      "name": "getTotalInvestmentByGoogleInvestor",
      "outputs": [
        {
          "internalType": "uint256",
          "name": "",
          "type": "uint256"
        }
      ],
      "stateMutability": "view",
      "type": "function"
    },
    {
      "inputs": [
        {
          "internalType": "address",
          "name": "investor",
          "type": "address"
        }
      ],
      "name": "getTotalInvestmentByWalletInvestor",
      "outputs": [
        {
          "internalType": "uint256",
          "name": "",
          "type": "uint256"
        }
      ],
      "stateMutability": "view",
      "type": "function"
    },
    {
      "inputs": [
        {
          "internalType": "uint256",
          "name": "investorId",
          "type": "uint256"
        }
      ],
      "name": "getTotalNumberOfDaosByGoogleInvestor",
      "outputs": [
        {
          "internalType": "uint256",
          "name": "",
          "type": "uint256"
        }
      ],
      "stateMutability": "view",
      "type": "function"
    },
    {
      "inputs": [
        {
          "internalType": "address",
          "name": "investor",
          "type": "address"
        }
      ],
      "name": "getTotalNumberOfDaosByWalletInvestor",
      "outputs": [
        {
          "internalType": "uint256",
          "name": "",
          "type": "uint256"
        }
      ],
      "stateMutability": "view",
      "type": "function"
    },
    {
      "inputs": [],
      "name": "getVerifiedAddresses",
      "outputs": [
        {
          "internalType": "address[]",
          "name": "",
          "type": "address[]"
        }
      ],
      "stateMutability": "view",
      "type": "function"
    },
    {
      "inputs": [
        {
          "internalType": "address",
          "name": "",
          "type": "address"
        }
      ],
      "name": "investments",
      "outputs": [
        {
          "internalType": "uint256",
          "name": "",
          "type": "uint256"
        }
      ],
      "stateMutability": "view",
      "type": "function"
    },
    {
      "inputs": [
        {
          "internalType": "address",
          "name": "_address",
          "type": "address"
        }
      ],
      "name": "isAddressVerified",
      "outputs": [
        {
          "internalType": "bool",
          "name": "",
          "type": "bool"
        }
      ],
      "stateMutability": "view",
      "type": "function"
    },
    {
      "inputs": [
        {
          "internalType": "address",
          "name": "investor",
          "type": "address"
        }
      ],
      "name": "isInvestorRegistered",
      "outputs": [
        {
          "internalType": "bool",
          "name": "",
          "type": "bool"
        }
      ],
      "stateMutability": "view",
      "type": "function"
    },
    {
      "inputs": [],
      "name": "minimumInvestment",
      "outputs": [
        {
          "internalType": "uint256",
          "name": "",
          "type": "uint256"
        }
      ],
      "stateMutability": "view",
      "type": "function"
    },
    {
      "inputs": [],
      "name": "owner",
      "outputs": [
        {
          "internalType": "address",
          "name": "",
          "type": "address"
        }
      ],
      "stateMutability": "view",
      "type": "function"
    },
    {
      "inputs": [
        {
          "internalType": "address",
          "name": "",
          "type": "address"
        },
        {
          "internalType": "uint256",
          "name": "",
          "type": "uint256"
        }
      ],
      "name": "partialAmountPaid",
      "outputs": [
        {
          "internalType": "uint256",
          "name": "",
          "type": "uint256"
        }
      ],
      "stateMutability": "view",
      "type": "function"
    },
    {
      "inputs": [
        {
          "internalType": "uint256",
          "name": "_farmerId",
          "type": "uint256"
        },
        {
          "internalType": "string",
          "name": "_description",
          "type": "string"
        },
        {
          "internalType": "string",
          "name": "_name1",
          "type": "string"
        },
        {
          "internalType": "string",
          "name": "_name",
          "type": "string"
        },
        {
          "internalType": "string",
          "name": "_farmReports",
          "type": "string"
        },
        {
          "internalType": "string",
          "name": "_financialReports",
          "type": "string"
        }
      ],
      "name": "registerFarmerFromGoogleSignIn",
      "outputs": [],
      "stateMutability": "nonpayable",
      "type": "function"
    },
    {
      "inputs": [
        {
          "internalType": "address",
          "name": "_farmer1",
          "type": "address"
        },
        {
          "internalType": "string",
          "name": "_description",
          "type": "string"
        },
        {
          "internalType": "string",
          "name": "_name1",
          "type": "string"
        },
        {
          "internalType": "string",
          "name": "_name",
          "type": "string"
        },
        {
          "internalType": "string",
          "name": "_farmReports",
          "type": "string"
        },
        {
          "internalType": "string",
          "name": "_financialReports",
          "type": "string"
        }
      ],
      "name": "registerFarmerFromWallet",
      "outputs": [],
      "stateMutability": "nonpayable",
      "type": "function"
    },
    {
      "inputs": [
        {
          "internalType": "uint256",
          "name": "investorId",
          "type": "uint256"
        },
        {
          "internalType": "string",
          "name": "name",
          "type": "string"
        }
      ],
      "name": "registerInvestorFromGoogleSignIn",
      "outputs": [],
      "stateMutability": "nonpayable",
      "type": "function"
    },
    {
      "inputs": [
        {
          "internalType": "string",
          "name": "name",
          "type": "string"
        }
      ],
      "name": "registerInvestorFromWallet",
      "outputs": [],
      "stateMutability": "nonpayable",
      "type": "function"
    },
    {
      "inputs": [
        {
          "internalType": "uint256",
          "name": "",
          "type": "uint256"
        }
      ],
      "name": "registeredInvestors",
      "outputs": [
        {
          "internalType": "address",
          "name": "investorAddress",
          "type": "address"
        },
        {
          "internalType": "uint256",
          "name": "googleInvestorId",
          "type": "uint256"
        },
        {
          "internalType": "string",
          "name": "name",
          "type": "string"
        }
      ],
      "stateMutability": "view",
      "type": "function"
    },
    {
      "inputs": [
        {
          "internalType": "uint256",
          "name": "daoId",
          "type": "uint256"
        }
      ],
      "name": "removeDao",
      "outputs": [],
      "stateMutability": "nonpayable",
      "type": "function"
    },
    {
      "inputs": [
        {
          "internalType": "uint256",
          "name": "daoId",
          "type": "uint256"
        },
        {
          "internalType": "uint256",
          "name": "amountToRepay",
          "type": "uint256"
        }
      ],
      "name": "repayFunds",
      "outputs": [],
      "stateMutability": "nonpayable",
      "type": "function"
    },
    {
      "inputs": [],
      "name": "title",
      "outputs": [
        {
          "internalType": "string",
          "name": "",
          "type": "string"
        }
      ],
      "stateMutability": "view",
      "type": "function"
    },
    {
      "inputs": [
        {
          "internalType": "uint256",
          "name": "",
          "type": "uint256"
        }
      ],
      "name": "totalAmountWithdrawn",
      "outputs": [
        {
          "internalType": "uint256",
          "name": "",
          "type": "uint256"
        }
      ],
      "stateMutability": "view",
      "type": "function"
    },
    {
      "inputs": [
        {
          "internalType": "uint256",
          "name": "",
          "type": "uint256"
        }
      ],
      "name": "totalDAOs",
      "outputs": [
        {
          "internalType": "address",
          "name": "address1",
          "type": "address"
        },
        {
          "internalType": "uint256",
          "name": "farmerId",
          "type": "uint256"
        },
        {
          "internalType": "string",
          "name": "name1",
          "type": "string"
        },
        {
          "internalType": "string",
          "name": "description",
          "type": "string"
        },
        {
          "internalType": "string",
          "name": "farmReports",
          "type": "string"
        },
        {
          "internalType": "string",
          "name": "financialReports",
          "type": "string"
        },
        {
          "internalType": "string",
          "name": "name",
          "type": "string"
        },
        {
          "internalType": "uint256",
          "name": "id",
          "type": "uint256"
        },
        {
          "internalType": "uint256",
          "name": "amountInvested",
          "type": "uint256"
        },
        {
          "internalType": "bool",
          "name": "verified",
          "type": "bool"
        }
      ],
      "stateMutability": "view",
      "type": "function"
    },
    {
      "inputs": [],
      "name": "totalInvestment",
      "outputs": [
        {
          "internalType": "uint256",
          "name": "",
          "type": "uint256"
        }
      ],
      "stateMutability": "view",
      "type": "function"
    },
    {
      "inputs": [
        {
          "internalType": "address",
          "name": "",
          "type": "address"
        }
      ],
      "name": "totalInvestmentByEachWalletInvestor",
      "outputs": [
        {
          "internalType": "uint256",
          "name": "",
          "type": "uint256"
        }
      ],
      "stateMutability": "view",
      "type": "function"
    },
    {
      "inputs": [
        {
          "internalType": "uint256",
          "name": "",
          "type": "uint256"
        }
      ],
      "name": "totalInvestmentByGooleInvestor",
      "outputs": [
        {
          "internalType": "uint256",
          "name": "",
          "type": "uint256"
        }
      ],
      "stateMutability": "view",
      "type": "function"
    },
    {
      "inputs": [
        {
          "internalType": "uint256",
          "name": "",
          "type": "uint256"
        }
      ],
      "name": "totalNumberOfDaosByGooleInvestor",
      "outputs": [
        {
          "internalType": "uint256",
          "name": "",
          "type": "uint256"
        }
      ],
      "stateMutability": "view",
      "type": "function"
    },
    {
      "inputs": [
        {
          "internalType": "address",
          "name": "",
          "type": "address"
        }
      ],
      "name": "totalNumberOfDaosByWalletInvestor",
      "outputs": [
        {
          "internalType": "uint256",
          "name": "",
          "type": "uint256"
        }
      ],
      "stateMutability": "view",
      "type": "function"
    },
    {
      "inputs": [
        {
          "internalType": "uint256",
          "name": "daoId",
          "type": "uint256"
        }
      ],
      "name": "unverifyDao",
      "outputs": [],
      "stateMutability": "nonpayable",
      "type": "function"
    },
    {
      "inputs": [
        {
          "internalType": "uint256",
          "name": "daoId",
          "type": "uint256"
        }
      ],
      "name": "verifyDao",
      "outputs": [],
      "stateMutability": "nonpayable",
      "type": "function"
    },
    {
      "inputs": [
        {
          "internalType": "uint256",
          "name": "daoId",
          "type": "uint256"
        },
        {
          "internalType": "uint256",
          "name": "amountToWithdraw",
          "type": "uint256"
        }
      ],
      "name": "withDrawDFunds",
      "outputs": [],
      "stateMutability": "nonpayable",
      "type": "function"
    }
  ],
  "bytecode": "0x60806040523480156200001157600080fd5b506040516200623d3803806200623d833981810160405281019062000037919062000348565b8060009081620000489190620005e4565b5060097313ef924eb7408e90278b86b659960afb00ddae619080600181540180825580915050600190039060005260206000200160009091909190916101000a81548173ffffffffffffffffffffffffffffffffffffffff021916908373ffffffffffffffffffffffffffffffffffffffff16021790555060097323792579e2979a98d12a33a85e35914079304a569080600181540180825580915050600190039060005260206000200160009091909190916101000a81548173ffffffffffffffffffffffffffffffffffffffff021916908373ffffffffffffffffffffffffffffffffffffffff160217905550600973dc4f6ea5856eda459286e8d0ef42e389d07137ff9080600181540180825580915050600190039060005260206000200160009091909190916101000a81548173ffffffffffffffffffffffffffffffffffffffff021916908373ffffffffffffffffffffffffffffffffffffffff16021790555050620006cb565b6000604051905090565b600080fd5b600080fd5b600080fd5b600080fd5b6000601f19601f8301169050919050565b7f4e487b7100000000000000000000000000000000000000000000000000000000600052604160045260246000fd5b6200021e82620001d3565b810181811067ffffffffffffffff8211171562000240576200023f620001e4565b5b80604052505050565b600062000255620001b5565b905062000263828262000213565b919050565b600067ffffffffffffffff821115620002865762000285620001e4565b5b6200029182620001d3565b9050602081019050919050565b60005b83811015620002be578082015181840152602081019050620002a1565b60008484015250505050565b6000620002e1620002db8462000268565b62000249565b9050828152602081018484840111156200030057620002ff620001ce565b5b6200030d8482856200029e565b509392505050565b600082601f8301126200032d576200032c620001c9565b5b81516200033f848260208601620002ca565b91505092915050565b600060208284031215620003615762000360620001bf565b5b600082015167ffffffffffffffff811115620003825762000381620001c4565b5b620003908482850162000315565b91505092915050565b600081519050919050565b7f4e487b7100000000000000000000000000000000000000000000000000000000600052602260045260246000fd5b60006002820490506001821680620003ec57607f821691505b602082108103620004025762000401620003a4565b5b50919050565b60008190508160005260206000209050919050565b60006020601f8301049050919050565b600082821b905092915050565b6000600883026200046c7fffffffffffffffffffffffffffffffffffffffffffffffffffffffffffffffff826200042d565b6200047886836200042d565b95508019841693508086168417925050509392505050565b6000819050919050565b6000819050919050565b6000620004c5620004bf620004b98462000490565b6200049a565b62000490565b9050919050565b6000819050919050565b620004e183620004a4565b620004f9620004f082620004cc565b8484546200043a565b825550505050565b600090565b6200051062000501565b6200051d818484620004d6565b505050565b5b8181101562000545576200053960008262000506565b60018101905062000523565b5050565b601f82111562000594576200055e8162000408565b62000569846200041d565b8101602085101562000579578190505b6200059162000588856200041d565b83018262000522565b50505b505050565b600082821c905092915050565b6000620005b96000198460080262000599565b1980831691505092915050565b6000620005d48383620005a6565b9150826002028217905092915050565b620005ef8262000399565b67ffffffffffffffff8111156200060b576200060a620001e4565b5b620006178254620003d3565b6200062482828562000549565b600060209050601f8311600181146200065c576000841562000647578287015190505b620006538582620005c6565b865550620006c3565b601f1984166200066c8662000408565b60005b8281101562000696578489015182556001820191506020850194506020810190506200066f565b86831015620006b65784890151620006b2601f891682620005a6565b8355505b6001600288020188555050505b505050505050565b615b6280620006db6000396000f3fe6080604052600436106102515760003560e01c80636bd830ff11610139578063b3afc439116100b6578063ce99886d1161007a578063ce99886d146109a6578063d39d050a146109d1578063d840b4df14610a0e578063da9dd8bf14610a54578063eb352c8114610a91578063fe714f6414610aba57610251565b8063b3afc439146108a4578063c89e6eca146108cf578063c95255671461090c578063ca3f04b014610935578063ccbbd2601461096057610251565b806396b98862116100fd57806396b98862146107855780639abad058146107c25780639c5f8385146107ff578063a431a8a51461083c578063aa5b6d4c1461087957610251565b80636bd830ff1461068e5780637086157c146106b757806381794330146106e05780638da5cb5b1461071d57806393cead5e1461074857610251565b8063471059cd116101d2578063536c52bb11610196578063536c52bb1461054857806355460972146105855780635b715f00146105c25780635e60ab90146105ff57806361a4799c1461062857806364b605da1461066557610251565b8063471059cd1461046e5780634a79d50c1461048a5780634bcca7fc146104b55780634c54114c146104f257806352ff15cd1461051d57610251565b80631da7180d116102195780631da7180d14610361578063200b0a82146103a05780632b925b25146103c957806334422a47146103f45780633b4a485d1461043157610251565b806305cee5b1146102565780630fe481451461029357806310ea13df146102d05780631cb0aa99146102fb5780631cb70fb914610338575b600080fd5b34801561026257600080fd5b5061027d600480360381019061027891906140a4565b610ae3565b60405161028a91906140ea565b60405180910390f35b34801561029f57600080fd5b506102ba60048036038101906102b59190614131565b610afb565b6040516102c791906140ea565b60405180910390f35b3480156102dc57600080fd5b506102e5610b13565b6040516102f291906140ea565b60405180910390f35b34801561030757600080fd5b50610322600480360381019061031d9190614131565b610b19565b60405161032f91906140ea565b60405180910390f35b34801561034457600080fd5b5061035f600480360381019061035a9190614131565b610b36565b005b34801561036d57600080fd5b5061038860048036038101906103839190614131565b61109b565b604051610397939291906141fd565b60405180910390f35b3480156103ac57600080fd5b506103c760048036038101906103c29190614370565b61117d565b005b3480156103d557600080fd5b506103de611629565b6040516103eb91906140ea565b60405180910390f35b34801561040057600080fd5b5061041b60048036038101906104169190614131565b61162f565b60405161042891906140ea565b60405180910390f35b34801561043d57600080fd5b5061045860048036038101906104539190614131565b61164f565b60405161046591906140ea565b60405180910390f35b61048860048036038101906104839190614489565b61166c565b005b34801561049657600080fd5b5061049f61195a565b6040516104ac91906144dc565b60405180910390f35b3480156104c157600080fd5b506104dc60048036038101906104d791906144fe565b6119e8565b6040516104e9919061453e565b60405180910390f35b3480156104fe57600080fd5b50610507611a36565b60405161051491906140ea565b60405180910390f35b34801561052957600080fd5b50610532611a3c565b60405161053f9190614617565b60405180910390f35b34801561055457600080fd5b5061056f600480360381019061056a91906140a4565b611aca565b60405161057c91906140ea565b60405180910390f35b34801561059157600080fd5b506105ac60048036038101906105a79190614131565b611b13565b6040516105b991906140ea565b60405180910390f35b3480156105ce57600080fd5b506105e960048036038101906105e491906140a4565b611b2b565b6040516105f691906140ea565b60405180910390f35b34801561060b57600080fd5b5061062660048036038101906106219190614131565b611b74565b005b34801561063457600080fd5b5061064f600480360381019061064a91906140a4565b611c7c565b60405161065c91906140ea565b60405180910390f35b34801561067157600080fd5b5061068c60048036038101906106879190614639565b611c94565b005b34801561069a57600080fd5b506106b560048036038101906106b09190614682565b611df0565b005b3480156106c357600080fd5b506106de60048036038101906106d991906146de565b611fc1565b005b3480156106ec57600080fd5b5061070760048036038101906107029190614131565b6124d4565b60405161071491906140ea565b60405180910390f35b34801561072957600080fd5b506107326124ec565b60405161073f919061453e565b60405180910390f35b34801561075457600080fd5b5061076f600480360381019061076a9190614131565b612512565b60405161077c91906140ea565b60405180910390f35b34801561079157600080fd5b506107ac60048036038101906107a791906140a4565b612537565b6040516107b991906140ea565b60405180910390f35b3480156107ce57600080fd5b506107e960048036038101906107e491906147f7565b61254f565b6040516107f691906140ea565b60405180910390f35b34801561080b57600080fd5b50610826600480360381019061082191906140a4565b612574565b6040516108339190614852565b60405180910390f35b34801561084857600080fd5b50610863600480360381019061085e91906147f7565b612629565b604051610870919061453e565b60405180910390f35b34801561088557600080fd5b5061088e612677565b60405161089b9190614be3565b60405180910390f35b3480156108b057600080fd5b506108b9612b96565b6040516108c69190614852565b60405180910390f35b3480156108db57600080fd5b506108f660048036038101906108f19190614131565b612ba9565b60405161090391906140ea565b60405180910390f35b34801561091857600080fd5b50610933600480360381019061092e9190614131565b612bc6565b005b34801561094157600080fd5b5061094a612cce565b6040516109579190614d17565b60405180910390f35b34801561096c57600080fd5b5061098760048036038101906109829190614131565b612f08565b60405161099d9a99989796959493929190614d39565b60405180910390f35b3480156109b257600080fd5b506109bb613231565b6040516109c8919061453e565b60405180910390f35b3480156109dd57600080fd5b506109f860048036038101906109f391906144fe565b613257565b604051610a05919061453e565b60405180910390f35b348015610a1a57600080fd5b50610a356004803603810190610a309190614131565b6132a5565b604051610a4b9a99989796959493929190614d39565b60405180910390f35b348015610a6057600080fd5b50610a7b6004803603810190610a7691906140a4565b6135de565b604051610a889190614852565b60405180910390f35b348015610a9d57600080fd5b50610ab86004803603810190610ab391906144fe565b61368c565b005b348015610ac657600080fd5b50610ae16004803603810190610adc91906144fe565b613867565b005b60106020528060005260406000206000915090505481565b60126020528060005260406000206000915090505481565b60035481565b600060126000838152602001908152602001600020549050919050565b610b3f336135de565b610b7e576040517f08c379a0000000000000000000000000000000000000000000000000000000008152600401610b7590614e44565b60405180910390fd5b600081118015610b9057506007548111155b610bcf576040517f08c379a0000000000000000000000000000000000000000000000000000000008152600401610bc690614eb0565b60405180910390fd5b6000600e6000838152602001908152602001600020905080600b0160009054906101000a900460ff1615610c38576040517f08c379a0000000000000000000000000000000000000000000000000000000008152600401610c2f90614f1c565b60405180910390fd5b6000600183610c479190614f6b565b90506008805490508110610c90576040517f08c379a0000000000000000000000000000000000000000000000000000000008152600401610c8790614feb565b60405180910390fd5b8260088281548110610ca557610ca461500b565b5b90600052602060002090600c02016007015414610cf7576040517f08c379a0000000000000000000000000000000000000000000000000000000008152600401610cee90615086565b60405180910390fd5b60086001600880549050610d0b9190614f6b565b81548110610d1c57610d1b61500b565b5b90600052602060002090600c020160088281548110610d3e57610d3d61500b565b5b90600052602060002090600c02016000820160009054906101000a900473ffffffffffffffffffffffffffffffffffffffff168160000160006101000a81548173ffffffffffffffffffffffffffffffffffffffff021916908373ffffffffffffffffffffffffffffffffffffffff1602179055506001820154816001015560028201816002019081610dd191906152c8565b5060038201816003019081610de691906152c8565b5060048201816004019081610dfb91906152c8565b5060058201816005019081610e1091906152c8565b5060068201816006019081610e2591906152c8565b5060078201548160070155600882015481600801556009820181600901908054610e50929190613d68565b50600a820181600a01908054610e67929190613dba565b50600b820160009054906101000a900460ff1681600b0160006101000a81548160ff0219169083151502179055509050506008805480610eaa57610ea96153b0565b5b60019003818190600052602060002090600c0201600080820160006101000a81549073ffffffffffffffffffffffffffffffffffffffff02191690556001820160009055600282016000610efe9190613e0c565b600382016000610f0e9190613e0c565b600482016000610f1e9190613e0c565b600582016000610f2e9190613e0c565b600682016000610f3e9190613e0c565b60078201600090556008820160009055600982016000610f5e9190613e4c565b600a82016000610f6e9190613e6d565b600b820160006101000a81549060ff021916905550509055600e6000848152602001908152602001600020600080820160006101000a81549073ffffffffffffffffffffffffffffffffffffffff02191690556001820160009055600282016000610fd99190613e0c565b600382016000610fe99190613e0c565b600482016000610ff99190613e0c565b6005820160006110099190613e0c565b6006820160006110199190613e0c565b600782016000905560088201600090556009820160006110399190613e4c565b600a820160006110499190613e6d565b600b820160006101000a81549060ff021916905550507fa06f724666d0a2bde56689ccf4d2e4b5e3e76d852cf31aa25c2e214db33ffe5f8360405161108e91906140ea565b60405180910390a1505050565b600a81815481106110ab57600080fd5b90600052602060002090600302016000915090508060000160009054906101000a900473ffffffffffffffffffffffffffffffffffffffff16908060010154908060020180546110fa906150d5565b80601f0160208091040260200160405190810160405280929190818152602001828054611126906150d5565b80156111735780601f1061114857610100808354040283529160200191611173565b820191906000526020600020905b81548152906001019060200180831161115657829003601f168201915b5050505050905083565b61118686613aa0565b156111c6576040517f08c379a00000000000000000000000000000000000000000000000000000000081526004016111bd9061542b565b60405180910390fd5b600760008154809291906111d99061544b565b919050555060008060075490506000604051806101800160405280600073ffffffffffffffffffffffffffffffffffffffff1681526020018a8152602001888152602001898152602001868152602001858152602001878152602001838152602001848152602001600067ffffffffffffffff81111561125c5761125b614245565b5b60405190808252806020026020018201604052801561128a5781602001602082028036833780820191505090505b508152602001600067ffffffffffffffff8111156112ab576112aa614245565b5b6040519080825280602002602001820160405280156112d95781602001602082028036833780820191505090505b50815260200160001515815250905080600e600084815260200190815260200160002060008201518160000160006101000a81548173ffffffffffffffffffffffffffffffffffffffff021916908373ffffffffffffffffffffffffffffffffffffffff1602179055506020820151816001015560408201518160020190816113629190615493565b5060608201518160030190816113789190615493565b50608082015181600401908161138e9190615493565b5060a08201518160050190816113a49190615493565b5060c08201518160060190816113ba9190615493565b5060e0820151816007015561010082015181600801556101208201518160090190805190602001906113ed929190613e8e565b5061014082015181600a01908051906020019061140b929190613f18565b5061016082015181600b0160006101000a81548160ff02191690831515021790555090505060088190806001815401808255809150506001900390600052602060002090600c020160009091909190915060008201518160000160006101000a81548173ffffffffffffffffffffffffffffffffffffffff021916908373ffffffffffffffffffffffffffffffffffffffff1602179055506020820151816001015560408201518160020190816114c29190615493565b5060608201518160030190816114d89190615493565b5060808201518160040190816114ee9190615493565b5060a08201518160050190816115049190615493565b5060c082015181600601908161151a9190615493565b5060e08201518160070155610100820151816008015561012082015181600901908051906020019061154d929190613e8e565b5061014082015181600a01908051906020019061156b929190613f18565b5061016082015181600b0160006101000a81548160ff0219169083151502179055505050600c60008a8152602001908152602001600020309080600181540180825580915050600190039060005260206000200160009091909190916101000a81548173ffffffffffffffffffffffffffffffffffffffff021916908373ffffffffffffffffffffffffffffffffffffffff1602179055506001600660006101000a81548160ff021916908315150217905550505050505050505050565b60045481565b6000600e6000838152602001908152602001600020600801549050919050565b600060116000838152602001908152602001600020549050919050565b6000600e60008581526020019081526020016000209050600083036116d657806001015483036116d1576040517f08c379a00000000000000000000000000000000000000000000000000000000081526004016116c8906155d7565b60405180910390fd5b611769565b8060000160009054906101000a900473ffffffffffffffffffffffffffffffffffffffff1673ffffffffffffffffffffffffffffffffffffffff163373ffffffffffffffffffffffffffffffffffffffff1603611768576040517f08c379a000000000000000000000000000000000000000000000000000000000815260040161175f90615669565b60405180910390fd5b5b6000831461180f57818160080160008282546117859190615689565b9250508190555080600a01839080600181540180825580915050600190039060005260206000200160009091909190915055816011600085815260200190815260200160002060008282546117da9190615689565b925050819055506012600084815260200190815260200160002060008154809291906118059061544b565b9190505550611954565b818160080160008282546118239190615689565b9250508190555080600901339080600181540180825580915050600190039060005260206000200160009091909190916101000a81548173ffffffffffffffffffffffffffffffffffffffff021916908373ffffffffffffffffffffffffffffffffffffffff16021790555081600f60003373ffffffffffffffffffffffffffffffffffffffff1673ffffffffffffffffffffffffffffffffffffffff16815260200190815260200160002060008282546118de9190615689565b92505081905550601060003373ffffffffffffffffffffffffffffffffffffffff1673ffffffffffffffffffffffffffffffffffffffff16815260200190815260200160002060008154809291906119359061544b565b9190505550346003600082825461194c9190615689565b925050819055505b50505050565b60008054611967906150d5565b80601f0160208091040260200160405190810160405280929190818152602001828054611993906150d5565b80156119e05780601f106119b5576101008083540402835291602001916119e0565b820191906000526020600020905b8154815290600101906020018083116119c357829003601f168201915b505050505081565b600c6020528160005260406000208181548110611a0457600080fd5b906000526020600020016000915091509054906101000a900473ffffffffffffffffffffffffffffffffffffffff1681565b60075481565b60606009805480602002602001604051908101604052809291908181526020018280548015611ac057602002820191906000526020600020905b8160009054906101000a900473ffffffffffffffffffffffffffffffffffffffff1673ffffffffffffffffffffffffffffffffffffffff1681526020019060010190808311611a76575b5050505050905090565b6000601060008373ffffffffffffffffffffffffffffffffffffffff1673ffffffffffffffffffffffffffffffffffffffff168152602001908152602001600020549050919050565b60136020528060005260406000206000915090505481565b6000600f60008373ffffffffffffffffffffffffffffffffffffffff1673ffffffffffffffffffffffffffffffffffffffff168152602001908152602001600020549050919050565b611b7d336135de565b611bbc576040517f08c379a0000000000000000000000000000000000000000000000000000000008152600401611bb390614e44565b60405180910390fd5b600081118015611bce57506007548111155b611c0d576040517f08c379a0000000000000000000000000000000000000000000000000000000008152600401611c0490614eb0565b60405180910390fd5b6000600e60008381526020019081526020016000209050600081600b0160006101000a81548160ff0219169083151502179055507fa06f724666d0a2bde56689ccf4d2e4b5e3e76d852cf31aa25c2e214db33ffe5f82604051611c7091906140ea565b60405180910390a15050565b600f6020528060005260406000206000915090505481565b6000815111611cd8576040517f08c379a0000000000000000000000000000000000000000000000000000000008152600401611ccf90615709565b60405180910390fd5b611ce133612574565b15611d21576040517f08c379a0000000000000000000000000000000000000000000000000000000008152600401611d1890615775565b60405180910390fd5b600060405180606001604052803373ffffffffffffffffffffffffffffffffffffffff16815260200160008152602001838152509050600a81908060018154018082558091505060019003906000526020600020906003020160009091909190915060008201518160000160006101000a81548173ffffffffffffffffffffffffffffffffffffffff021916908373ffffffffffffffffffffffffffffffffffffffff160217905550602082015181600101556040820151816002019081611de99190615493565b5050505050565b611df982613b70565b15611e39576040517f08c379a0000000000000000000000000000000000000000000000000000000008152600401611e309061542b565b60405180910390fd5b6000815111611e7d576040517f08c379a0000000000000000000000000000000000000000000000000000000008152600401611e7490615709565b60405180910390fd5b60006040518060600160405280600073ffffffffffffffffffffffffffffffffffffffff168152602001848152602001838152509050600a81908060018154018082558091505060019003906000526020600020906003020160009091909190915060008201518160000160006101000a81548173ffffffffffffffffffffffffffffffffffffffff021916908373ffffffffffffffffffffffffffffffffffffffff160217905550602082015181600101556040820151816002019081611f459190615493565b505050600d6000848152602001908152602001600020309080600181540180825580915050600190039060005260206000200160009091909190916101000a81548173ffffffffffffffffffffffffffffffffffffffff021916908373ffffffffffffffffffffffffffffffffffffffff160217905550505050565b611fca86613c40565b1561200a576040517f08c379a0000000000000000000000000000000000000000000000000000000008152600401612001906157e1565b60405180910390fd5b6007600081548092919061201d9061544b565b9190505550600080600754905060006040518061018001604052808a73ffffffffffffffffffffffffffffffffffffffff16815260200160008152602001888152602001898152602001868152602001858152602001878152602001838152602001848152602001600067ffffffffffffffff8111156120a05761209f614245565b5b6040519080825280602002602001820160405280156120ce5781602001602082028036833780820191505090505b508152602001600067ffffffffffffffff8111156120ef576120ee614245565b5b60405190808252806020026020018201604052801561211d5781602001602082028036833780820191505090505b50815260200160001515815250905080600e600084815260200190815260200160002060008201518160000160006101000a81548173ffffffffffffffffffffffffffffffffffffffff021916908373ffffffffffffffffffffffffffffffffffffffff1602179055506020820151816001015560408201518160020190816121a69190615493565b5060608201518160030190816121bc9190615493565b5060808201518160040190816121d29190615493565b5060a08201518160050190816121e89190615493565b5060c08201518160060190816121fe9190615493565b5060e082015181600701556101008201518160080155610120820151816009019080519060200190612231929190613e8e565b5061014082015181600a01908051906020019061224f929190613f18565b5061016082015181600b0160006101000a81548160ff02191690831515021790555090505060088190806001815401808255809150506001900390600052602060002090600c020160009091909190915060008201518160000160006101000a81548173ffffffffffffffffffffffffffffffffffffffff021916908373ffffffffffffffffffffffffffffffffffffffff1602179055506020820151816001015560408201518160020190816123069190615493565b50606082015181600301908161231c9190615493565b5060808201518160040190816123329190615493565b5060a08201518160050190816123489190615493565b5060c082015181600601908161235e9190615493565b5060e082015181600701556101008201518160080155610120820151816009019080519060200190612391929190613e8e565b5061014082015181600a0190805190602001906123af929190613f18565b5061016082015181600b0160006101000a81548160ff0219169083151502179055505050600b60003073ffffffffffffffffffffffffffffffffffffffff1673ffffffffffffffffffffffffffffffffffffffff168152602001908152602001600020899080600181540180825580915050600190039060005260206000200160009091909190916101000a81548173ffffffffffffffffffffffffffffffffffffffff021916908373ffffffffffffffffffffffffffffffffffffffff1602179055506001600660006101000a81548160ff0219169083151502179055507f0acd9bdc7b641798c00bfa4f97f5c6c7dee74f9d8edde3bceb1294505b1db6588983886040516124c1939291906141fd565b60405180910390a1505050505050505050565b60116020528060005260406000206000915090505481565b600260009054906101000a900473ffffffffffffffffffffffffffffffffffffffff1681565b600080600e600084815260200190815260200160002090508060080154915050919050565b60056020528060005260406000206000915090505481565b6014602052816000526040600020602052806000526040600020600091509150505481565b600080600090505b600a8054905081101561261e578273ffffffffffffffffffffffffffffffffffffffff16600a82815481106125b4576125b361500b565b5b906000526020600020906003020160000160009054906101000a900473ffffffffffffffffffffffffffffffffffffffff1673ffffffffffffffffffffffffffffffffffffffff160361260b576001915050612624565b80806126169061544b565b91505061257c565b50600090505b919050565b600b602052816000526040600020818154811061264557600080fd5b906000526020600020016000915091509054906101000a900473ffffffffffffffffffffffffffffffffffffffff1681565b6060600060075467ffffffffffffffff81111561269757612696614245565b5b6040519080825280602002602001820160405280156126d057816020015b6126bd613f65565b8152602001906001900390816126b55790505b5090506000600190505b6007548111612b8e57600e6000828152602001908152602001600020604051806101800160405290816000820160009054906101000a900473ffffffffffffffffffffffffffffffffffffffff1673ffffffffffffffffffffffffffffffffffffffff1673ffffffffffffffffffffffffffffffffffffffff16815260200160018201548152602001600282018054612772906150d5565b80601f016020809104026020016040519081016040528092919081815260200182805461279e906150d5565b80156127eb5780601f106127c0576101008083540402835291602001916127eb565b820191906000526020600020905b8154815290600101906020018083116127ce57829003601f168201915b50505050508152602001600382018054612804906150d5565b80601f0160208091040260200160405190810160405280929190818152602001828054612830906150d5565b801561287d5780601f106128525761010080835404028352916020019161287d565b820191906000526020600020905b81548152906001019060200180831161286057829003601f168201915b50505050508152602001600482018054612896906150d5565b80601f01602080910402602001604051908101604052809291908181526020018280546128c2906150d5565b801561290f5780601f106128e45761010080835404028352916020019161290f565b820191906000526020600020905b8154815290600101906020018083116128f257829003601f168201915b50505050508152602001600582018054612928906150d5565b80601f0160208091040260200160405190810160405280929190818152602001828054612954906150d5565b80156129a15780601f10612976576101008083540402835291602001916129a1565b820191906000526020600020905b81548152906001019060200180831161298457829003601f168201915b505050505081526020016006820180546129ba906150d5565b80601f01602080910402602001604051908101604052809291908181526020018280546129e6906150d5565b8015612a335780601f10612a0857610100808354040283529160200191612a33565b820191906000526020600020905b815481529060010190602001808311612a1657829003601f168201915b50505050508152602001600782015481526020016008820154815260200160098201805480602002602001604051908101604052809291908181526020018280548015612ad557602002820191906000526020600020905b8160009054906101000a900473ffffffffffffffffffffffffffffffffffffffff1673ffffffffffffffffffffffffffffffffffffffff1681526020019060010190808311612a8b575b50505050508152602001600a8201805480602002602001604051908101604052809291908181526020018280548015612b2d57602002820191906000526020600020905b815481526020019060010190808311612b19575b50505050508152602001600b820160009054906101000a900460ff16151515158152505082600183612b5f9190614f6b565b81518110612b7057612b6f61500b565b5b60200260200101819052508080612b869061544b565b9150506126da565b508091505090565b600660009054906101000a900460ff1681565b600060136000838152602001908152602001600020549050919050565b612bcf336135de565b612c0e576040517f08c379a0000000000000000000000000000000000000000000000000000000008152600401612c0590614e44565b60405180910390fd5b600081118015612c2057506007548111155b612c5f576040517f08c379a0000000000000000000000000000000000000000000000000000000008152600401612c5690614eb0565b60405180910390fd5b6000600e60008381526020019081526020016000209050600181600b0160006101000a81548160ff0219169083151502179055507fa06f724666d0a2bde56689ccf4d2e4b5e3e76d852cf31aa25c2e214db33ffe5f82604051612cc291906140ea565b60405180910390a15050565b60606000600a8054905067ffffffffffffffff811115612cf157612cf0614245565b5b604051908082528060200260200182016040528015612d2a57816020015b612d17613fde565b815260200190600190039081612d0f5790505b50905060005b600a80549050811015612f0057600a8181548110612d5157612d5061500b565b5b906000526020600020906003020160000160009054906101000a900473ffffffffffffffffffffffffffffffffffffffff16828281518110612d9657612d9561500b565b5b60200260200101516000019073ffffffffffffffffffffffffffffffffffffffff16908173ffffffffffffffffffffffffffffffffffffffff1681525050600a8181548110612de857612de761500b565b5b90600052602060002090600302016002018054612e04906150d5565b80601f0160208091040260200160405190810160405280929190818152602001828054612e30906150d5565b8015612e7d5780601f10612e5257610100808354040283529160200191612e7d565b820191906000526020600020905b815481529060010190602001808311612e6057829003601f168201915b5050505050828281518110612e9557612e9461500b565b5b602002602001015160400181905250600a8181548110612eb857612eb761500b565b5b906000526020600020906003020160010154828281518110612edd57612edc61500b565b5b602002602001015160200181815250508080612ef89061544b565b915050612d30565b508091505090565b600e6020528060005260406000206000915090508060000160009054906101000a900473ffffffffffffffffffffffffffffffffffffffff1690806001015490806002018054612f57906150d5565b80601f0160208091040260200160405190810160405280929190818152602001828054612f83906150d5565b8015612fd05780601f10612fa557610100808354040283529160200191612fd0565b820191906000526020600020905b815481529060010190602001808311612fb357829003601f168201915b505050505090806003018054612fe5906150d5565b80601f0160208091040260200160405190810160405280929190818152602001828054613011906150d5565b801561305e5780601f106130335761010080835404028352916020019161305e565b820191906000526020600020905b81548152906001019060200180831161304157829003601f168201915b505050505090806004018054613073906150d5565b80601f016020809104026020016040519081016040528092919081815260200182805461309f906150d5565b80156130ec5780601f106130c1576101008083540402835291602001916130ec565b820191906000526020600020905b8154815290600101906020018083116130cf57829003601f168201915b505050505090806005018054613101906150d5565b80601f016020809104026020016040519081016040528092919081815260200182805461312d906150d5565b801561317a5780601f1061314f5761010080835404028352916020019161317a565b820191906000526020600020905b81548152906001019060200180831161315d57829003601f168201915b50505050509080600601805461318f906150d5565b80601f01602080910402602001604051908101604052809291908181526020018280546131bb906150d5565b80156132085780601f106131dd57610100808354040283529160200191613208565b820191906000526020600020905b8154815290600101906020018083116131eb57829003601f168201915b50505050509080600701549080600801549080600b0160009054906101000a900460ff1690508a565b600160009054906101000a900473ffffffffffffffffffffffffffffffffffffffff1681565b600d602052816000526040600020818154811061327357600080fd5b906000526020600020016000915091509054906101000a900473ffffffffffffffffffffffffffffffffffffffff1681565b600881815481106132b557600080fd5b90600052602060002090600c02016000915090508060000160009054906101000a900473ffffffffffffffffffffffffffffffffffffffff1690806001015490806002018054613304906150d5565b80601f0160208091040260200160405190810160405280929190818152602001828054613330906150d5565b801561337d5780601f106133525761010080835404028352916020019161337d565b820191906000526020600020905b81548152906001019060200180831161336057829003601f168201915b505050505090806003018054613392906150d5565b80601f01602080910402602001604051908101604052809291908181526020018280546133be906150d5565b801561340b5780601f106133e05761010080835404028352916020019161340b565b820191906000526020600020905b8154815290600101906020018083116133ee57829003601f168201915b505050505090806004018054613420906150d5565b80601f016020809104026020016040519081016040528092919081815260200182805461344c906150d5565b80156134995780601f1061346e57610100808354040283529160200191613499565b820191906000526020600020905b81548152906001019060200180831161347c57829003601f168201915b5050505050908060050180546134ae906150d5565b80601f01602080910402602001604051908101604052809291908181526020018280546134da906150d5565b80156135275780601f106134fc57610100808354040283529160200191613527565b820191906000526020600020905b81548152906001019060200180831161350a57829003601f168201915b50505050509080600601805461353c906150d5565b80601f0160208091040260200160405190810160405280929190818152602001828054613568906150d5565b80156135b55780601f1061358a576101008083540402835291602001916135b5565b820191906000526020600020905b81548152906001019060200180831161359857829003601f168201915b50505050509080600701549080600801549080600b0160009054906101000a900460ff1690508a565b600080600090505b600980549050811015613681578273ffffffffffffffffffffffffffffffffffffffff166009828154811061361e5761361d61500b565b5b9060005260206000200160009054906101000a900473ffffffffffffffffffffffffffffffffffffffff1673ffffffffffffffffffffffffffffffffffffffff160361366e576001915050613687565b80806136799061544b565b9150506135e6565b50600090505b919050565b6000600e600084815260200190815260200160002090508060000160009054906101000a900473ffffffffffffffffffffffffffffffffffffffff1673ffffffffffffffffffffffffffffffffffffffff163373ffffffffffffffffffffffffffffffffffffffff1614613735576040517f08c379a000000000000000000000000000000000000000000000000000000000815260040161372c9061584d565b60405180910390fd5b601360008481526020019081526020016000205482111561378b576040517f08c379a0000000000000000000000000000000000000000000000000000000008152600401613782906158df565b60405180910390fd5b816013600085815260200190815260200160002060008282546137ae9190614f6b565b9250508190555060003073ffffffffffffffffffffffffffffffffffffffff16836040516137db90615930565b60006040518083038185875af1925050503d8060008114613818576040519150601f19603f3d011682016040523d82523d6000602084013e61381d565b606091505b5050905080613861576040517f08c379a000000000000000000000000000000000000000000000000000000000815260040161385890615991565b60405180910390fd5b50505050565b6000600e600084815260200190815260200160002090508060000160009054906101000a900473ffffffffffffffffffffffffffffffffffffffff1673ffffffffffffffffffffffffffffffffffffffff163373ffffffffffffffffffffffffffffffffffffffff1614613910576040517f08c379a0000000000000000000000000000000000000000000000000000000008152600401613907906159fd565b60405180910390fd5b8060080154821115613957576040517f08c379a000000000000000000000000000000000000000000000000000000000815260040161394e90615a69565b60405180910390fd5b8181600801600082825461396b9190614f6b565b92505081905550816013600085815260200190815260200160002060008282546139959190615689565b9250508190555060003373ffffffffffffffffffffffffffffffffffffffff16836040516139c290615930565b60006040518083038185875af1925050503d80600081146139ff576040519150601f19603f3d011682016040523d82523d6000602084013e613a04565b606091505b5050905080613a48576040517f08c379a0000000000000000000000000000000000000000000000000000000008152600401613a3f90615ad5565b60405180910390fd5b7fd5550c71ca14cc44783a664cd798ecb70dcefed6b3cfdf323041ce6d221f2d728483600801546013600088815260200190815260200160002054604051613a9293929190615af5565b60405180910390a150505050565b600080600090505b600c600084815260200190815260200160002080549050811015613b65573073ffffffffffffffffffffffffffffffffffffffff16600c60008581526020019081526020016000208281548110613b0257613b0161500b565b5b9060005260206000200160009054906101000a900473ffffffffffffffffffffffffffffffffffffffff1673ffffffffffffffffffffffffffffffffffffffff1603613b52576001915050613b6b565b8080613b5d9061544b565b915050613aa8565b50600090505b919050565b600080600090505b600d600084815260200190815260200160002080549050811015613c35573073ffffffffffffffffffffffffffffffffffffffff16600d60008581526020019081526020016000208281548110613bd257613bd161500b565b5b9060005260206000200160009054906101000a900473ffffffffffffffffffffffffffffffffffffffff1673ffffffffffffffffffffffffffffffffffffffff1603613c22576001915050613c3b565b8080613c2d9061544b565b915050613b78565b50600090505b919050565b600080600090505b600b60003073ffffffffffffffffffffffffffffffffffffffff1673ffffffffffffffffffffffffffffffffffffffff16815260200190815260200160002080549050811015613d5d578273ffffffffffffffffffffffffffffffffffffffff16600b60003073ffffffffffffffffffffffffffffffffffffffff1673ffffffffffffffffffffffffffffffffffffffff1681526020019081526020016000208281548110613cfa57613cf961500b565b5b9060005260206000200160009054906101000a900473ffffffffffffffffffffffffffffffffffffffff1673ffffffffffffffffffffffffffffffffffffffff1603613d4a576001915050613d63565b8080613d559061544b565b915050613c48565b50600090505b919050565b828054828255906000526020600020908101928215613da95760005260206000209182015b82811115613da8578254825591600101919060010190613d8d565b5b509050613db69190614015565b5090565b828054828255906000526020600020908101928215613dfb5760005260206000209182015b82811115613dfa578254825591600101919060010190613ddf565b5b509050613e089190614015565b5090565b508054613e18906150d5565b6000825580601f10613e2a5750613e49565b601f016020900490600052602060002090810190613e489190614015565b5b50565b5080546000825590600052602060002090810190613e6a9190614015565b50565b5080546000825590600052602060002090810190613e8b9190614015565b50565b828054828255906000526020600020908101928215613f07579160200282015b82811115613f065782518260006101000a81548173ffffffffffffffffffffffffffffffffffffffff021916908373ffffffffffffffffffffffffffffffffffffffff16021790555091602001919060010190613eae565b5b509050613f149190614015565b5090565b828054828255906000526020600020908101928215613f54579160200282015b82811115613f53578251825591602001919060010190613f38565b5b509050613f619190614015565b5090565b604051806101800160405280600073ffffffffffffffffffffffffffffffffffffffff168152602001600081526020016060815260200160608152602001606081526020016060815260200160608152602001600081526020016000815260200160608152602001606081526020016000151581525090565b6040518060600160405280600073ffffffffffffffffffffffffffffffffffffffff16815260200160008152602001606081525090565b5b8082111561402e576000816000905550600101614016565b5090565b6000604051905090565b600080fd5b600080fd5b600073ffffffffffffffffffffffffffffffffffffffff82169050919050565b600061407182614046565b9050919050565b61408181614066565b811461408c57600080fd5b50565b60008135905061409e81614078565b92915050565b6000602082840312156140ba576140b961403c565b5b60006140c88482850161408f565b91505092915050565b6000819050919050565b6140e4816140d1565b82525050565b60006020820190506140ff60008301846140db565b92915050565b61410e816140d1565b811461411957600080fd5b50565b60008135905061412b81614105565b92915050565b6000602082840312156141475761414661403c565b5b60006141558482850161411c565b91505092915050565b61416781614066565b82525050565b600081519050919050565b600082825260208201905092915050565b60005b838110156141a757808201518184015260208101905061418c565b60008484015250505050565b6000601f19601f8301169050919050565b60006141cf8261416d565b6141d98185614178565b93506141e9818560208601614189565b6141f2816141b3565b840191505092915050565b6000606082019050614212600083018661415e565b61421f60208301856140db565b818103604083015261423181846141c4565b9050949350505050565b600080fd5b600080fd5b7f4e487b7100000000000000000000000000000000000000000000000000000000600052604160045260246000fd5b61427d826141b3565b810181811067ffffffffffffffff8211171561429c5761429b614245565b5b80604052505050565b60006142af614032565b90506142bb8282614274565b919050565b600067ffffffffffffffff8211156142db576142da614245565b5b6142e4826141b3565b9050602081019050919050565b82818337600083830152505050565b600061431361430e846142c0565b6142a5565b90508281526020810184848401111561432f5761432e614240565b5b61433a8482856142f1565b509392505050565b600082601f8301126143575761435661423b565b5b8135614367848260208601614300565b91505092915050565b60008060008060008060c0878903121561438d5761438c61403c565b5b600061439b89828a0161411c565b965050602087013567ffffffffffffffff8111156143bc576143bb614041565b5b6143c889828a01614342565b955050604087013567ffffffffffffffff8111156143e9576143e8614041565b5b6143f589828a01614342565b945050606087013567ffffffffffffffff81111561441657614415614041565b5b61442289828a01614342565b935050608087013567ffffffffffffffff81111561444357614442614041565b5b61444f89828a01614342565b92505060a087013567ffffffffffffffff8111156144705761446f614041565b5b61447c89828a01614342565b9150509295509295509295565b6000806000606084860312156144a2576144a161403c565b5b60006144b08682870161411c565b93505060206144c18682870161411c565b92505060406144d28682870161411c565b9150509250925092565b600060208201905081810360008301526144f681846141c4565b905092915050565b600080604083850312156145155761451461403c565b5b60006145238582860161411c565b92505060206145348582860161411c565b9150509250929050565b6000602082019050614553600083018461415e565b92915050565b600081519050919050565b600082825260208201905092915050565b6000819050602082019050919050565b61458e81614066565b82525050565b60006145a08383614585565b60208301905092915050565b6000602082019050919050565b60006145c482614559565b6145ce8185614564565b93506145d983614575565b8060005b8381101561460a5781516145f18882614594565b97506145fc836145ac565b9250506001810190506145dd565b5085935050505092915050565b6000602082019050818103600083015261463181846145b9565b905092915050565b60006020828403121561464f5761464e61403c565b5b600082013567ffffffffffffffff81111561466d5761466c614041565b5b61467984828501614342565b91505092915050565b600080604083850312156146995761469861403c565b5b60006146a78582860161411c565b925050602083013567ffffffffffffffff8111156146c8576146c7614041565b5b6146d485828601614342565b9150509250929050565b60008060008060008060c087890312156146fb576146fa61403c565b5b600061470989828a0161408f565b965050602087013567ffffffffffffffff81111561472a57614729614041565b5b61473689828a01614342565b955050604087013567ffffffffffffffff81111561475757614756614041565b5b61476389828a01614342565b945050606087013567ffffffffffffffff81111561478457614783614041565b5b61479089828a01614342565b935050608087013567ffffffffffffffff8111156147b1576147b0614041565b5b6147bd89828a01614342565b92505060a087013567ffffffffffffffff8111156147de576147dd614041565b5b6147ea89828a01614342565b9150509295509295509295565b6000806040838503121561480e5761480d61403c565b5b600061481c8582860161408f565b925050602061482d8582860161411c565b9150509250929050565b60008115159050919050565b61484c81614837565b82525050565b60006020820190506148676000830184614843565b92915050565b600081519050919050565b600082825260208201905092915050565b6000819050602082019050919050565b6148a2816140d1565b82525050565b600082825260208201905092915050565b60006148c48261416d565b6148ce81856148a8565b93506148de818560208601614189565b6148e7816141b3565b840191505092915050565b600082825260208201905092915050565b600061490e82614559565b61491881856148f2565b935061492383614575565b8060005b8381101561495457815161493b8882614594565b9750614946836145ac565b925050600181019050614927565b5085935050505092915050565b600081519050919050565b600082825260208201905092915050565b6000819050602082019050919050565b60006149998383614899565b60208301905092915050565b6000602082019050919050565b60006149bd82614961565b6149c7818561496c565b93506149d28361497d565b8060005b83811015614a035781516149ea888261498d565b97506149f5836149a5565b9250506001810190506149d6565b5085935050505092915050565b614a1981614837565b82525050565b600061018083016000830151614a386000860182614585565b506020830151614a4b6020860182614899565b5060408301518482036040860152614a6382826148b9565b91505060608301518482036060860152614a7d82826148b9565b91505060808301518482036080860152614a9782826148b9565b91505060a083015184820360a0860152614ab182826148b9565b91505060c083015184820360c0860152614acb82826148b9565b91505060e0830151614ae060e0860182614899565b50610100830151614af5610100860182614899565b50610120830151848203610120860152614b0f8282614903565b915050610140830151848203610140860152614b2b82826149b2565b915050610160830151614b42610160860182614a10565b508091505092915050565b6000614b598383614a1f565b905092915050565b6000602082019050919050565b6000614b798261486d565b614b838185614878565b935083602082028501614b9585614889565b8060005b85811015614bd15784840389528151614bb28582614b4d565b9450614bbd83614b61565b925060208a01995050600181019050614b99565b50829750879550505050505092915050565b60006020820190508181036000830152614bfd8184614b6e565b905092915050565b600081519050919050565b600082825260208201905092915050565b6000819050602082019050919050565b6000606083016000830151614c496000860182614585565b506020830151614c5c6020860182614899565b5060408301518482036040860152614c7482826148b9565b9150508091505092915050565b6000614c8d8383614c31565b905092915050565b6000602082019050919050565b6000614cad82614c05565b614cb78185614c10565b935083602082028501614cc985614c21565b8060005b85811015614d055784840389528151614ce68582614c81565b9450614cf183614c95565b925060208a01995050600181019050614ccd565b50829750879550505050505092915050565b60006020820190508181036000830152614d318184614ca2565b905092915050565b600061014082019050614d4f600083018d61415e565b614d5c602083018c6140db565b8181036040830152614d6e818b6141c4565b90508181036060830152614d82818a6141c4565b90508181036080830152614d9681896141c4565b905081810360a0830152614daa81886141c4565b905081810360c0830152614dbe81876141c4565b9050614dcd60e08301866140db565b614ddb6101008301856140db565b614de9610120830184614843565b9b9a5050505050505050505050565b7f556e617574686f72697a65642061636365737300000000000000000000000000600082015250565b6000614e2e601383614178565b9150614e3982614df8565b602082019050919050565b60006020820190508181036000830152614e5d81614e21565b9050919050565b7f496e76616c69642044414f204944000000000000000000000000000000000000600082015250565b6000614e9a600e83614178565b9150614ea582614e64565b602082019050919050565b60006020820190508181036000830152614ec981614e8d565b9050919050565b7f43616e6e6f742072656d6f766520612076657269666965642044414f00000000600082015250565b6000614f06601c83614178565b9150614f1182614ed0565b602082019050919050565b60006020820190508181036000830152614f3581614ef9565b9050919050565b7f4e487b7100000000000000000000000000000000000000000000000000000000600052601160045260246000fd5b6000614f76826140d1565b9150614f81836140d1565b9250828203905081811115614f9957614f98614f3c565b5b92915050565b7f496e76616c696420696e64657800000000000000000000000000000000000000600082015250565b6000614fd5600d83614178565b9150614fe082614f9f565b602082019050919050565b6000602082019050818103600083015261500481614fc8565b9050919050565b7f4e487b7100000000000000000000000000000000000000000000000000000000600052603260045260246000fd5b7f496e76616c69642044414f20494420696e20746f74616c44414f730000000000600082015250565b6000615070601b83614178565b915061507b8261503a565b602082019050919050565b6000602082019050818103600083015261509f81615063565b9050919050565b7f4e487b7100000000000000000000000000000000000000000000000000000000600052602260045260246000fd5b600060028204905060018216806150ed57607f821691505b602082108103615100576150ff6150a6565b5b50919050565b600081549050615115816150d5565b9050919050565b60008190508160005260206000209050919050565b60006020601f8301049050919050565b600082821b905092915050565b60006008830261517e7fffffffffffffffffffffffffffffffffffffffffffffffffffffffffffffffff82615141565b6151888683615141565b95508019841693508086168417925050509392505050565b6000819050919050565b60006151c56151c06151bb846140d1565b6151a0565b6140d1565b9050919050565b6000819050919050565b6151df836151aa565b6151f36151eb826151cc565b84845461514e565b825550505050565b600090565b6152086151fb565b6152138184846151d6565b505050565b5b818110156152375761522c600082615200565b600181019050615219565b5050565b601f82111561527c5761524d8161511c565b61525684615131565b81016020851015615265578190505b61527961527185615131565b830182615218565b50505b505050565b600082821c905092915050565b600061529f60001984600802615281565b1980831691505092915050565b60006152b8838361528e565b9150826002028217905092915050565b8181036152d65750506153ae565b6152df82615106565b67ffffffffffffffff8111156152f8576152f7614245565b5b61530282546150d5565b61530d82828561523b565b6000601f83116001811461533c576000841561532a578287015490505b61533485826152ac565b8655506153a7565b601f19841661534a8761511c565b96506153558661511c565b60005b8281101561537d57848901548255600182019150600185019450602081019050615358565b8683101561539a5784890154615396601f89168261528e565b8355505b6001600288020188555050505b5050505050505b565b7f4e487b7100000000000000000000000000000000000000000000000000000000600052603160045260246000fd5b7f494420697320616c726561647920726567697374657265640000000000000000600082015250565b6000615415601883614178565b9150615420826153df565b602082019050919050565b6000602082019050818103600083015261544481615408565b9050919050565b6000615456826140d1565b91507fffffffffffffffffffffffffffffffffffffffffffffffffffffffffffffffff820361548857615487614f3c565b5b600182019050919050565b61549c8261416d565b67ffffffffffffffff8111156154b5576154b4614245565b5b6154bf82546150d5565b6154ca82828561523b565b600060209050601f8311600181146154fd57600084156154eb578287015190505b6154f585826152ac565b86555061555d565b601f19841661550b8661511c565b60005b828110156155335784890151825560018201915060208501945060208101905061550e565b86831015615550578489015161554c601f89168261528e565b8355505b6001600288020188555050505b505050505050565b7f596f752063616e27742062652061206661726d657220616e6420696e7665737460008201527f20696e20796f7572206f776e2064616f00000000000000000000000000000000602082015250565b60006155c1603083614178565b91506155cc82615565565b604082019050919050565b600060208201905081810360008301526155f0816155b4565b9050919050565b7f4f6e6c7920616464726573736573207468617420686176656e2774206a6f696e60008201527f6564207468652044414f2063616e20696e766573742e00000000000000000000602082015250565b6000615653603683614178565b915061565e826155f7565b604082019050919050565b6000602082019050818103600083015261568281615646565b9050919050565b6000615694826140d1565b915061569f836140d1565b92508282019050808211156156b7576156b6614f3c565b5b92915050565b7f4e616d652063616e6e6f7420626520656d707479000000000000000000000000600082015250565b60006156f3601483614178565b91506156fe826156bd565b602082019050919050565b60006020820190508181036000830152615722816156e6565b9050919050565b7f496e766573746f7220697320616c726561647920726567697374657265640000600082015250565b600061575f601e83614178565b915061576a82615729565b602082019050919050565b6000602082019050818103600083015261578e81615752565b9050919050565b7f41646472657373203120697320616c7265616479207265676973746572656400600082015250565b60006157cb601f83614178565b91506157d682615795565b602082019050919050565b600060208201905081810360008301526157fa816157be565b9050919050565b7f4f6e6c79206661726d6572732063616e2072657061792066756e647321000000600082015250565b6000615837601d83614178565b915061584282615801565b602082019050919050565b600060208201905081810360008301526158668161582a565b9050919050565b7f416d6f756e7420746f207265706179206578636565647320746f74616c20616d60008201527f6f756e742077697468647261776e2e0000000000000000000000000000000000602082015250565b60006158c9602f83614178565b91506158d48261586d565b604082019050919050565b600060208201905081810360008301526158f8816158bc565b9050919050565b600081905092915050565b50565b600061591a6000836158ff565b91506159258261590a565b600082019050919050565b600061593b8261590d565b9150819050919050565b7f4661696c656420746f207472616e736665722066756e647320746f2044414f2e600082015250565b600061597b602083614178565b915061598682615945565b602082019050919050565b600060208201905081810360008301526159aa8161596e565b9050919050565b7f4f6e6c79206661726d6572732063616e2077697468647261772066756e647300600082015250565b60006159e7601f83614178565b91506159f2826159b1565b602082019050919050565b60006020820190508181036000830152615a16816159da565b9050919050565b7f496e73756666696369656e742066756e647320746f2077697468647261770000600082015250565b6000615a53601e83614178565b9150615a5e82615a1d565b602082019050919050565b60006020820190508181036000830152615a8281615a46565b9050919050565b7f4661696c656420746f207472616e736665722066756e64732100000000000000600082015250565b6000615abf601983614178565b9150615aca82615a89565b602082019050919050565b60006020820190508181036000830152615aee81615ab2565b9050919050565b6000606082019050615b0a60008301866140db565b615b1760208301856140db565b615b2460408301846140db565b94935050505056fea2646970667358221220344b1dfc0ec98df5ea41c7b2fa8db6559f54aae80d92793cb2e4fc4062dabfde64736f6c63430008130033",
  "linkReferences": {},
  "deployedLinkReferences": {}
}